:100000000C9434000C943E000C943E000C943E0082
:100010000C943E000C943E000C943E000C943E0068
:100020000C943E000C943E000C943E000C94400056
:100030000C943E000C943E000C943E000C943E0048
:100040000C943E000C943E000C943E000C943E0038
:100050000C943E000C9450000C943E000C943E0016
:100060000C943E000C943E0011241FBECFEFD8E04C
:10007000DEBFCDBF0E94BE000C9402010C940000B4
:100080008F938FB78F93EF93FF93EAE7F0E0808130
:1000900080648083FF91EF918F918FBF8F9118952E
:1000A0000F920FB60F921F9211242F933F936F93CD
:1000B0007F938F939F939091790085B1887E85B9C6
:1000C00035B124E0299F212D112497FD02C080E045
:1000D00009C0233049F581E09F3F09F080E0829517
:1000E000807F27E0822B832B85B9292F209525350A
:1000F000E8F4822F880F280F822F809535E0632F38
:100100000E94F60088BD17BC822F0E94F6008093E3
:10011000B4009F918F917F916F913F912F911F908C
:100120000F900FBE0F90189523E0D1CF2A3A88F494
:100130008AEA891B982F880F880F292F281B18BC43
:10014000891B35E0632F0E94F60087BD8FEF820F79
:10015000DCCF85E5891B982F880F880F292F281B56
:10016000891B35E0632F0E94F60088BD8FEF820F58
:100170000E94F60087BD1092B400CBCF84B1876196
:1001800084B985B1887E85B98AB188668AB98BB110
:1001900087798BB91092800089E08093810010925A
:1001A00085001092840080E49CE9909389008093FC
:1001B000880082E080936F0083EA84BD85E085BD7E
:1001C00093E29093B0008093B10017BC18BC1092DA
:1001D000B40080E680937C008FE880937A001092D0
:1001E0007B0081E080937E007894FFCF992778E0B0
:1001F000880F991F961708F0961B881F7A95C9F7E4
:0802000080950895F894FFCFEA
:00000001FF
