:100000000C9434000C9451000C9451000C94510049
:100010000C9451000C9451000C9451000C9451001C
:100020000C9451000C9451000C9451000C9453000A
:100030000C9451000C9451000C9451000C945100FC
:100040000C9451000C9451000C9451000C94040138
:100050000C9451000C9463000C9451000C945100CA
:100060000C9451000C94510011241FBECFEFD8E026
:10007000DEBFCDBF11E0A0E0B1E0E2EBF2E002C0F4
:1000800005900D92AC30B107D9F721E0ACE0B1E0BA
:1000900001C01D92AE34B207E1F70E942B010C940F
:1000A00057010C9400008F938FB78F93EF93FF93BA
:1000B000EAE7F0E0808180648083FF91EF918F9187
:1000C0008FBF8F9118952F932FB72F933F934F93F7
:1000D0008F939F93AF93BF93EF93FF93809179009A
:1000E00090917C00977021F5982F92959F70803A9F
:1000F000D8F4905D909300018F708A30B8F4805DE1
:100100008093010180917C00887F816080937C00D6
:10011000FF91EF91BF91AF919F918F914F913F913F
:100120002F912FBF2F911895995AE4CF895AE8CF74
:1001300090917C0097709130B9F4982F92959F70B0
:10014000803A70F4905D909304018F708A3050F47F
:10015000805D8093050180917C00887F8260D6CF8E
:10016000995AF1CF895AF5CF90917C0097709230CF
:1001700079F6982F92959F70803AE0F5905D909374
:1001800008018F708A30C0F5805D809309018091ED
:100190007C00887F80937C0090910D0180910C0100
:1001A000981760F180910C0190910D01815C891B81
:1001B0008C3008F4ADCFA0E0B1E02CE031E09C91B0
:1001C00080910D018F5F8F7340910C01841769F04E
:1001D000E0910D01F0E0E25FFE4F908380930D010E
:1001E0008091C10080628093C10011962A173B075D
:1001F00031F78ECF995AC3CF895AC7CF80910C015E
:1002000090910D018150D3CF8F938FB78F939F9390
:10021000EF93FF9390910D0180910C0198130CC006
:100220008091C1008F7D8093C100FF91EF919F91DC
:100230008F918FBF8F911895E0910C01F0E0E25FF4
:10024000FE4F80818093C60080910C018F5F8F7379
:1002500080930C01EACF1092C50080E18093C40026
:1002600082E08093C00098E09093C10096E0909364
:10027000C200109280009AE0909381001092850055
:100280001092840024E134E33093890020938800A5
:1002900080936F0080E680937C008FE880937A00E3
:1002A00010927B0087E080937E007894FFCFF894D3
:0202B000FFCF7E
:0C02B20000002C2000002C2000000D0A91
:00000001FF
