:100000000C9434000C943E000C943E000C943E0082
:100010000C943E000C943E000C943E000C943E0068
:100020000C943E000C943E000C943E000C943E0058
:100030000C943E000C943E000C943E000C943E0048
:100040000C943E000C943E000C943E000C943E0038
:100050000C943E000C943E000C943E000C943E0028
:100060000C943E000C943E0011241FBECFEFD8E04C
:10007000DEBFCDBF0E9440000C9460000C940000D5
:10008000209A52985A9A89B1847090E031E029B14F
:100090002470AC01822F90E0452BC9F384E021113C
:1000A000F6CF85B1832785B92FEF80E792E0215005
:1000B00080409040E1F700C0000080E090E0E7CF92
:0400C000F894FFCFE2
:00000001FF
