:100000000C9434000C9451000C9451000C94510049
:100010000C9451000C9451000C9451000C9451001C
:100020000C9451000C9451000C9451000C948B00D2
:100030000C9451000C9451000C9451000C945100FC
:100040000C9451000C9451000C9451000C94240118
:100050000C9451000C949B000C9451000C94510092
:100060000C9451000C94510011241FBECFEFD8E026
:10007000DEBFCDBF11E0A0E0B1E0E0E3F3E002C0FD
:1000800005900D92A231B107D9F721E0A2E1B1E0CC
:1000900001C01D92A435B207E1F70E9456010C94ED
:1000A00096010C940000CF93DF93FC019B01743008
:1000B000F8F4683E83E07807F0F081E38083C901BB
:1000C00064E670E00E948201CB016AE070E00E9469
:1000D0008201805D8183CAE0D0E0C901BE010E9437
:1000E0008201CB01BE010E948201805D828309C032
:1000F0002FEF33E0E2CF6436710508F76A307105FF
:1001000050F7C9016AE070E00E948201805D83833C
:10011000DF91CF9108958F938FB78F93EF93FF93D4
:10012000EAE7F0E0808180648083FF91EF918F9116
:100130008FBF8F9118951F920F920FB60F921124B7
:100140002F933F934F935F936F937F938F939F93DF
:10015000AF93BF93EF93FF93609178007091790014
:1001600080917C008770D9F480E091E00E94530078
:1001700080917C00887F816080937C00FF91EF916B
:10018000BF91AF919F918F917F916F915F914F91AF
:100190003F912F910F900FBE0F901F901895809157
:1001A0007C008770813049F486E091E00E94530022
:1001B00080917C00887F8260DFCF80917C00877097
:1001C0008230E1F68CE091E00E94530080917C0047
:1001D000887F80937C009091130180911201981781
:1001E00068F18091120190911301815C891B823129
:1001F00028F2E0E0F1E09081809113018F5F8F732E
:1002000020911201821769F0A0911301B0E0AC5E59
:10021000BE4F9C93809313018091C10080628093B4
:10022000C1008081803320F080818A3308F41082FD
:10023000319681E0E231F807F1F6A0CF809112010A
:10024000909113018150D2CF1F921FB61F9211249B
:100250008F939F93EF93FF939091130180911201DD
:1002600098130DC08091C1008F7D8093C100FF91D4
:10027000EF919F918F911F901FBE1F901895E09155
:100280001201F0E0EC5EFE4F8081811541F0E091BB
:100290001201F0E0EC5EFE4F80818093C6008091F9
:1002A00012018F5F8F7380931201E1CF1092C5000E
:1002B00080E18093C40082E08093C00098E0909336
:1002C000C10096E09093C2001092800099E0909354
:1002D0008100109285001092840020E43CE9309364
:1002E00089002093880080936F0080E480937C00D5
:1002F0008FE880937A0010927B0087E080937E00E5
:100300007894FFCFAA1BBB1B51E107C0AA1FBB1FDC
:10031000A617B70710F0A61BB70B881F991F5A9591
:10032000A9F780959095BC01CD010895F894FFCF71
:10033000000000002C20000000002C200000000025
:020340000D0AA4
:00000001FF
