:100000000C9434000C9451000C9451000C94510049
:100010000C9451000C9451000C9451000C9451001C
:100020000C9451000C9451000C9451000C9453000A
:100030000C9451000C9451000C9451000C945100FC
:100040000C9451000C9451000C9451000C94F90044
:100050000C9451000C9463000C9451000C945100CA
:100060000C9451000C94510011241FBECFEFD8E026
:10007000DEBFCDBF11E0A0E0B1E0EAEDF2E002C0EA
:1000800005900D92A630B107D9F721E0A6E0B1E0C6
:1000900001C01D92A834B207E1F70E942B010C9415
:1000A0006B010C9400008F938FB78F93EF93FF93A6
:1000B000EAE7F0E0808180648083FF91EF918F9187
:1000C0008FBF8F9118950F920FB60F921F92112428
:1000D0002F933F934F935F936F937F938F939F9350
:1000E000AF93BF93EF93FF93209178003091790005
:1000F00029553140343010F5283E83E0380708F1A7
:1001000081E380930001C90164E670E00E94570119
:10011000CB016AE070E00E945701805D809301018D
:10012000EAE0F0E0C901BF010E945701CB01BF0125
:100130000E945701805D8093020109C02FEF33E0D8
:10014000DFCF24363105F8F62A30310548F7C901EA
:100150006AE070E00E945701805D809303019091F6
:100160000701809106019817F0F1809106019091A6
:100170000701815C891B863028F1E0E0F1E026E090
:1001800031E09081809107018F5F8F73409106016C
:10019000841769F0A0910701B0E0A85FBE4F9C935F
:1001A000809307018091C10080628093C1008081AB
:1001B000803320F080818A3308F4108231962E1724
:1001C0003F07F9F6FF91EF91BF91AF919F918F910A
:1001D0007F916F915F914F913F912F911F900F9061
:1001E0000FBE0F90189580910601909107018150E4
:1001F000C1CF1F921FB61F9211248F939F93EF932D
:10020000FF93909107018091060198130DC0809192
:10021000C1008F7D8093C100FF91EF919F918F91DD
:100220001F901FBE1F901895E0910601F0E0E85F57
:10023000FE4F8081811541F0E0910601F0E0E85F1A
:10024000FE4F80818093C600809106018F5F8F737F
:1002500080930601E1CF1092C50080E18093C40035
:1002600082E08093C00098E09093C10096E0909364
:10027000C2001092800099E0909381001092850056
:100280001092840020E43CE9309389002093880098
:1002900080936F0088EC80937C008FE880937A00D5
:1002A00010927B0087E080937E007894FFCFAA1B9A
:1002B000BB1B51E107C0AA1FBB1FA617B70710F051
:1002C000A61BB70B881F991F5A95A9F78095909583
:0A02D000BC01CD010895F894FFCFA2
:0602DA00000000000D0A07
:00000001FF
