:100000000C9434000C9451000C9451000C94510049
:100010000C9451000C9451000C9451000C9451001C
:100020000C9451000C9451000C9451000C9453000A
:100030000C9451000C9451000C9451000C945100FC
:100040000C9451000C9451000C9451000C94BC0081
:100050000C9451000C9463000C9451000C945100CA
:100060000C9451000C94510011241FBECFEFD8E026
:10007000DEBFCDBF11E0A0E0B1E0E4E2F2E002C0FB
:1000800005900D92A430B107D9F721E0A4E0B1E0CA
:1000900001C01D92A634B207E1F70E94E3000C9460
:1000A00010010C9400008F938FB78F93EF93FF9301
:1000B000EAE7F0E0808180648083FF91EF918F9187
:1000C0008FBF8F9118952F932FB72F938F939F9357
:1000D000AF93BF93EF93FF9380917900982F929500
:1000E0009F70803A08F03EC0905D909300018F7041
:1000F0008A30D0F5805D8093010190910501809157
:100100000401981798F18091040190910501815C98
:10011000891B8430E8F0A0E0B1E09C91809105015A
:100120008F5F8F7320910401821769F0E0910501C0
:10013000F0E0EA5FFE4F9083809305018091C1005B
:1001400080628093C100119681E0A430B80729F73E
:10015000FF91EF91BF91AF919F918F912F912FBF01
:100160002F911895995AC1CF895AC5CF8091040112
:10017000909105018150CCCF8F938FB78F939F9330
:10018000EF93FF93909105018091040198130CC0A7
:100190008091C1008F7D8093C100FF91EF919F916D
:1001A0008F918FBF8F911895E0910401F0E0EA5F85
:1001B000FE4F80818093C600809104018F5F8F7312
:1001C00080930401EACF80E88FBF1092C50080E1E0
:1001D0008093C40082E08093C00098E09093C100B7
:1001E00096E09093C2001092800099E09093810075
:1001F000109285001092840020E43CE9309389003D
:100200002093880080936F0080E680937C008FE8C5
:1002100080937A0010927B0081E080937E00FFCF74
:04022000F894FFCF80
:0402240000000D0ABF
:00000001FF
